:101E000001C0D9C011248FE594E09EBF8DBF84B777
:101E1000882361F0982F9A70923041F081FF02C0C0
:101E200097EF94BF282E80E0B3D0EAC085E08EBD46
:101E300082E08BB988E18AB986E880BD8FE089B9F4
:101E40008EE0A6D0BD9A86E024ED3EEF44E050E25D
:101E50003DBD2CBD48BF08B602FEFDCF98B3952707
:101E600098BBA8955F9902C0815091F723E0E22EBC
:101E7000DD24D39435E0C32E41E1B42E82D08134E9
:101E800071F47FD0182F88D081E0123821F088E0DB
:101E9000113809F083E071D080E16FD0EFCF823448
:101EA00019F484E181D0F8CF853411F485E0FACFBC
:101EB000853541F466D0C82F64D0D82FCC0FDD1FF4
:101EC0006BD0EACF863521F484E06ED080E0E3CF9A
:101ED000843609F033C055D054D0182F52D0F82E84
:101EE000012F80E6682E712C43018FEF881A980A23
:101EF00048D0F301808301503401B1F74DD0F5E4AF
:101F0000FF1201C0FFCFFE01E7BEE89507B600FC57
:101F1000FDCFFE01A0E6B0E08D919D910C01D7BEF2
:101F2000E895112432961250B9F7FE01C7BEE89524
:101F300007B600FCFDCFB7BEE895AECF843771F48D
:101F400020D01FD0F82E1DD027D08E01F80185910A
:101F50008F0113D0FA94F110F9CF9ECF853739F461
:101F60001BD08EE10AD083E908D087E094CF813579
:101F700009F0A6CF88E00CD0A3CF5D9BFECF8CB933
:101F800008955F9BFECF5C9901C0A8958CB1089520
:101F900098E191BD81BD0895F4DF803219F088E0A9
:101FA000F7DFFFCF84E1E9CFCF93C82FEADFC1503D
:101FB000E9F7CF91F1CFFC010A0167BFE895112441
:101FC00007B600FCFDCF667029F0452B19F481E1BE
:061FD00087BFE8950895AB
:021FFE000108D8
:0400000300001E00DB
:00000001FF
